:1000000000800010CD00000021100000231000002F
:10001000251000002710000029100000000000003B
:100020000000000000000000000000002B10000095
:100030002D100000000000002F1000003110000003
:1000400033100000331000003310000033100000A4
:100050003310000033100000331000003310000094
:100060003310000033100000450100003310000081
:10007000790100003310000033100000331000003D
:100080003310000033100000331000003310000064
:100090003310000033100000331000003310000054
:1000A0003310000033100000331000003310000044
:1000B0003310000033100000331000003310000034
:1000C0003310000033100000331000000148804757
:1000D00001480047E90D0000C552000010B540F28C
:1000E0001824C1F20004237863B940F20003C0F27F
:1000F00000032BB145F26C50C0F2000000E000BFDD
:100100000123237010BD00BF40F20003C0F20003C2
:1001100010B54BB145F26C5040F21C21C0F200000A
:10012000C1F2000100E000BF40F20000C1F2000097
:1001300003682BB140F20003C0F2000303B19847FB
:1001400010BD00BF80B500AF4CF20000C4F201004A
:1001500003F04AF84CF20000C4F2010003F0C6FDBF
:100160000346002B06D040F27823C1F200034FF083
:1001700001021A70BD4680BD80B500AF40F200009C
:10018000C4F20A0002F03EFE40F20000C4F20A008F
:1001900003F08CFD0346002B06D040F28D23C1F204
:1001A00000034FF001021A70BD4680BD80B500AF5C
:1001B00040F2A823C1F200031B684CF20000C4F215
:1001C000000040F20801C1F200019847BD4680BD21
:1001D00080B485B000AF0346FB71FB79002B1AD0C9
:1001E0004FF00003FB7312E0F97B40F27D23C1F274
:1001F00000034FF000025A54F97B40F26823C1F229
:100200000003FA7B5A54FB7B03F10103FB73FB7B76
:100210000F2BE9D919E04FF00003FB7312E0F97BD3
:1002200040F27D23C1F20003FA7B5A54F97B40F27D
:100230006823C1F200034FF000025A54FB7B03F124
:100240000103FB73FB7B0F2BE9D907F11407BD46B4
:1002500080BC704780B483B000AF0346FB71FEE7FB
:1002600080B483B000AF0346FB71FEE780B59AB05F
:1002700000AF01F0ABFAFFF799FF4FF0000387F8EA
:100280005B304FF0000387F85A304FF0010387F8D6
:1002900059304FF01B0387F858304FF0000387F8B0
:1002A000573007F15703184603F01CFF4FF01C03AB
:1002B00087F8583007F15703184603F013FF4FF043
:1002C000020387F859304FF00A0387F858304FF08F
:1002D000000387F8573007F15703184603F002FF71
:1002E0004FF00B0387F8583007F15703184603F017
:1002F000F9FE40F20000C4F20A0048F2A061C0F228
:10030000010102F0F3FB4CF20000C4F2010048F2DC
:10031000A061C0F2010102F0E9FB4FF0010387F890
:1003200055304FF0000387F853304FF0FF3387F814
:1003300056304FF0480387F8543007F153034CF21E
:100340000000C4F20100194603F022FB4FF00A003E
:1003500000F09AFA4FF00A004FF0110100F0B2FAE3
:100360004FF00C0000F090FA4FF00C004FF001013C
:1003700000F0A8FA40F20000C4F20A004FF00101B8
:1003800002F070FC4CF20000C4F201004FF00101D9
:1003900002F068FC40F27823C1F200034FF0000243
:1003A0001A7040F28D23C1F200034FF000021A7060
:1003B00040F2A823C1F200031B684CF20000C4F213
:1003C000000045F22431C0F2000198474FF00000D0
:1003D000FFF7FEFE4FF000037B604FF00003BB60B1
:1003E00040F26823C1F200033B614FF010037B61D0
:1003F00007F104034CF20000C4F2010019464FF06B
:10040000010203F083F94FF048037B6240F27D2341
:10041000C1F20003BB624FF01003FB624FF0000318
:100420007B634FF00003BB634FF003033B6407F1B2
:10043000240340F20000C4F20A0019464FF0010202
:1004400002F0CAFF40F28D23C1F200031B78DBB239
:10045000002BF7D040F27823C1F200031B78DBB207
:10046000002BEFD040F27D23C1F200033B6640F247
:100470006823C1F200037B664FF01003FB6524E0A4
:100480003B6E1A787B6E1B789A420CBF00230123C7
:10049000DAB23B6E03F101033B667B6E03F10103AD
:1004A0007B66002A0DD040F2A823C1F200031B682E
:1004B0004CF20000C4F2000045F24831C0F20001E5
:1004C0009847FB6D03F1FF33FB65FB6D002BD7D124
:1004D000FB6D002B0DD140F2A823C1F200031B6875
:1004E0004CF20000C4F2000045F25C31C0F20001A1
:1004F000984740F27823C1F200034FF000021A70CF
:1005000040F28D23C1F200034FF000021A7040F256
:10051000A823C1F200031B684CF20000C4F20000E3
:1005200045F27831C0F2000198474FF00100FFF723
:100530004FFE40F26823C1F200037B604FF01003CE
:10054000BB604FF000033B614FF000037B6107F19C
:1005500004034CF20000C4F2010019464FF00102FE
:1005600003F0D4F84FF048037B624FF00003BB6206
:100570004FF00003FB6240F27D23C1F200037B6376
:100580004FF01003BB634FF003033B6407F12403F8
:1005900040F20000C4F20A0019464FF0010202F0D6
:1005A0001BFF40F28D23C1F200031B78DBB2002B4E
:1005B000F7D040F27823C1F200031B78DBB2002BA6
:1005C000EFD040F27D23C1F200033B6640F2682386
:1005D000C1F200037B664FF01003FB6524E03B6E25
:1005E0001A787B6E1B789A420CBF00230123DAB283
:1005F0003B6E03F101033B667B6E03F101037B66F7
:10060000002A0DD040F2A823C1F200031B684CF26F
:100610000000C4F2000045F24831C0F200019847E2
:10062000FB6D03F1FF33FB65FB6D002BD7D1FB6D39
:10063000002B0DD140F2A823C1F200031B684CF23D
:100640000000C4F2000045F25C31C0F2000198479E
:1006500040F27823C1F200034FF000021A7040F21A
:100660008D23C1F200034FF000021A7040F2A8235C
:10067000C1F200031B684CF20000C4F2000045F216
:100680009831C0F2000198474FF00100FFF7A0FD3C
:1006900040F27B23C1F200036FF055021A7040F262
:1006A0007B23C1F200034FF055025A7040F27923C8
:1006B000C1F200034FF000021A7040F27923C1F238
:1006C00000034FF000025A7040F26823C1F20003A9
:1006D0007B604FF01003BB6040F27923C1F200034E
:1006E0003B614FF002037B6107F104034CF2000011
:1006F000C4F2010019464FF0010203F007F84FF071
:1007000048037B6240F27B23C1F20003BB624FF0DF
:100710000203FB6240F27D23C1F200037B634FF0D2
:100720001003BB634FF003033B6407F1240340F263
:100730000000C4F20A0019464FF0010202F04CFE1C
:1007400040F28D23C1F200031B78DBB2002BF7D0FF
:1007500040F27823C1F200031B78DBB2002BEFD00C
:1007600040F27D23C1F200033B6640F26823C1F2F0
:1007700000037B664FF01003FB6524E03B6E1A78A4
:100780007B6E1B789A420CBF00230123DAB23B6ECA
:1007900003F101033B667B6E03F101037B66002AD4
:1007A0000DD040F2A823C1F200031B684CF20000F8
:1007B000C4F2000045F24831C0F200019847FB6DD9
:1007C00003F1FF33FB65FB6D002BD7D1FB6D002BD5
:1007D0000DD140F2A823C1F200031B684CF20000C7
:1007E000C4F2000045F25C31C0F20001984740F2CB
:1007F0007B23C1F200033B6640F27923C1F2000380
:100800007B664FF00203FB6524E03B6E1A787B6E3B
:100810001B789A420CBF00230123DAB23B6E03F12E
:1008200001033B667B6E03F101037B66002A0DD05A
:1008300040F2A823C1F200031B684CF20000C4F28E
:10084000000045F24831C0F200019847FB6D03F10A
:10085000FF33FB65FB6D002BD7D1FB6D002B0DD15A
:1008600040F2A823C1F200031B684CF20000C4F25E
:10087000000045F25C31C0F200019847FB6D03F1C6
:100880000103FB65FAE700BF80B483B000AF034605
:10089000FB714EF20011CEF2000197F907304FEADA
:1008A0005310FB7903F01F024FF0010303FA02F328
:1008B0001A4600F1200341F8232007F10C07BD463A
:1008C00080BC704780B483B000AF03463960FB71D1
:1008D00097F90730002B10DA4EF60052CEF20002E4
:1008E000FB7903F00F03A3F104013B68DBB24FEA8D
:1008F000C303DBB20A4413760DE04EF20012CEF2CF
:10090000000297F907103B68DBB24FEAC303DBB282
:100910000A4482F8003307F10C07BD4680BC7047DB
:1009200080B500AFFFF7A2FC03461846BD4680BD68
:1009300080B483B000AF78603960FEE74FF0000309
:10094000EFF3098318467047184600BF034683F348
:10095000098870474FF00003EFF30883184670478B
:10096000184600BF034683F30888704780B483B0FD
:1009700000AF4FF000037B60EFF312837B607B6876
:10098000184607F10C07BD4680BC704780B483B0A1
:1009900000AF78607B6883F3118807F10C07BD46D0
:1009A00080BC704780B483B000AF4FF000037B6021
:1009B000EFF310837B607B68184607F10C07BD4698
:1009C00080BC704780B483B000AF78607B6883F3ED
:1009D000108807F10C07BD4680BC704780B483B017
:1009E00000AF4FF000037B60EFF313837B607B6805
:1009F000184607F10C07BD4680BC704780B483B031
:100A000000AF78607B6883F3138807F10C07BD465D
:100A100080BC704780B483B000AF4FF000037B60B0
:100A2000EFF314837B607B68184607F10C07BD4623
:100A300080BC704780B483B000AF78607B6883F37C
:100A4000148807F10C07BD4680BC704780B485B0A0
:100A500000AF78604FF00003FB607B681BBAFB605F
:100A6000FB68184607F11407BD4680BC704700BFFD
:100A700080B485B000AF0346FB804FF00003FB60FD
:100A8000FB885BBAFB60FB68184607F11407BD469C
:100A900080BC704780B485B000AF0346FB804FF048
:100AA0000003FB60FB88DBBAFB60FB68184607F1BC
:100AB0001407BD4680BC704780B485B000AF786035
:100AC0004FF00003FB607B6893FAA3F3FB60FB68C5
:100AD000184607F11407BD4680BC704780B485B046
:100AE00000AF78604FF00003FB737B68D3E84F3FA3
:100AF000FB73FB7B184607F11407BD4680BC7047AB
:100B000080B485B000AF78604FF00003FB817B6854
:100B1000D3E85F3FFB81FB89184607F11407BD4608
:100B200080BC704780B485B000AF78604FF00003A0
:100B3000FB607B6853E8003FFB60FB68184607F1E9
:100B40001407BD4680BC704780B485B000AF034633
:100B50003960FB714FF00003FB603A68FB79C2E833
:100B6000433FFB60FB68184607F11407BD4680BC95
:100B7000704700BF80B485B000AF03463960FB808A
:100B80004FF00003FB603A68FB88C2E8533FFB600C
:100B9000FB68184607F11407BD4680BC704700BFCC
:100BA00080B485B000AF786039604FF00003FB601F
:100BB0003A687B6842E80033FB60FB68184607F13F
:100BC0001407BD4680BC704780B400AF4CF20003F0
:100BD000C4F20F03D3F888304FEA136303F0030322
:100BE000032B40F0A9804CF20003C4F20F03D3F8AA
:100BF0000C3103F00303032B00F2F38001A252F83F
:100C000023F000BF150C0000790C0000DD0C000083
:100C1000150C00004CF20003C4F20F03D3F8883027
:100C20004FEA43434FEA534303F1010241F20023E9
:100C3000C0F27A0303FB02F24CF20003C4F20F038A
:100C4000D3F888304FEA134303F0FF0303F10103A5
:100C5000B2FBF3F24CF20003C4F20F03D3F80431F9
:100C600003F0FF0303F10103B2FBF3F240F2F413CC
:100C7000C1F200031A60B4E04CF20003C4F20F03A7
:100C8000D3F888304FEA43434FEA534303F101025C
:100C900043F20063C0F26E1303FB02F24CF2000356
:100CA000C4F20F03D3F888304FEA134303F0FF0375
:100CB00003F10103B2FBF3F24CF20003C4F20F03A1
:100CC000D3F8043103F0FF0303F10103B2FBF3F2A5
:100CD00040F2F413C1F200031A6082E04CF2000308
:100CE000C4F20F03D3F888304FEA43434FEA53432B
:100CF00003F101034FEA03424CF20003C4F20F0375
:100D0000D3F888304FEA134303F0FF0303F10103E4
:100D1000B2FBF3F24CF20003C4F20F03D3F8043138
:100D200003F0FF0303F10103B2FBF3F240F2F4130B
:100D3000C1F200031A6054E04CF20003C4F20F0346
:100D4000D3F80C3103F00303032B4AD801A252F865
:100D500023F000BF650D0000910D0000BD0D0000E7
:100D6000650D00004CF20003C4F20F03D3F8043108
:100D700003F0FF0303F1010240F60013C0F23D034C
:100D8000B3FBF2F240F2F413C1F200031A6028E060
:100D90004CF20003C4F20F03D3F8043103F0FF0355
:100DA00003F1010241F60033C0F2B703B3FBF2F2E4
:100DB00040F2F413C1F200031A6012E04CF2000397
:100DC000C4F20F03D3F8043103F0FF0303F101026F
:100DD0004FF40043B3FBF2F240F2F413C1F200030C
:100DE0001A60BD4680BC704780B400AF4CF200036F
:100DF000C4F20F034FF02002C3F8A0214CF200030D
:100E0000C4F20F03D3F8A03103F02003002B09D064
:100E10004CF20003C4F20F03D3F8A03103F04003F7
:100E2000002BF5D04CF20003C4F20F034FF0030285
:100E3000C3F804214CF20003C4F20F034FF0000288
:100E4000C3F8A8214CF20003C4F20F034FF00002D4
:100E5000C3F8AC214CF20003C4F20F034FF00102BF
:100E6000C3F80C214CF20002C4F20F0240F26303FB
:100E7000C0F20503C2F884304CF20003C4F20F0341
:100E80004FF0AA02C3F88C204CF20003C4F20F0307
:100E90004FF05502C3F88C204CF20003C4F20F034C
:100EA0004FF00102C3F880204CF20003C4F20F039C
:100EB0004FF0AA02C3F88C204CF20003C4F20F03D7
:100EC0004FF05502C3F88C204CF20003C4F20F031C
:100ED000D3F8883003F08063002BF5D04CF2000388
:100EE000C4F20F034FF00302C3F880204CF200035A
:100EF000C4F20F034FF0AA02C3F88C204CF2000397
:100F0000C4F20F034FF05502C3F88C204CF20003DB
:100F1000C4F20F03D3F8883003F04073002BF5D0F0
:100F20004CF20003C4F20F034FF02302C3F8A420D5
:100F30004CF20003C4F20F034FF0AA02C3F8AC2036
:100F40004CF20003C4F20F034FF05502C3F8AC207B
:100F50004CF20003C4F20F034FF00102C3F8A020CB
:100F60004CF20003C4F20F034FF0AA02C3F8AC2006
:100F70004CF20003C4F20F034FF05502C3F8AC204B
:100F80004CF20003C4F20F03D3F8A83003F48063DB
:100F9000002BF5D04CF20003C4F20F034FF0030214
:100FA000C3F8A0204CF20003C4F20F034FF0AA02D2
:100FB000C3F8AC204CF20003C4F20F034FF055020B
:100FC000C3F8AC204CF20003C4F20F03D3F8A830EE
:100FD00003F44073002BF5D04CF20002C4F20F0270
:100FE00048F2DE73C0F22843C2F8C4304CF200036A
:100FF000C4F20F034FF00002C3F8C8214CF2000303
:10100000C4F20F0343F23A021A604EF60053CEF2D6
:1010100000034FF000029A60BD4680BC704700BFDD
:10102000FEE7FEE7FEE7FEE7FEE7FEE7FEE7FEE798
:10103000FEE7FEE780B582B000AF78600B46FB703C
:1010400007F10303786819464FF001024FF00103DE
:1010500003F000FC07F10807BD4680BD80B584B0F1
:1010600000AF78604FF00003FB7307F10F0378685F
:1010700019464FF001024FF0010303F06BFCFB7BBC
:10108000184607F11007BD4680BD00BF80B584B08B
:1010900000AF786039603B68FB6009E0FB681A7854
:1010A000FB6803F10103FB6078681146FFF7C2FF9C
:1010B000FB681B78002BF1D107F11007BD4680BDFE
:1010C00080B582B000AF7860396078683968FFF722
:1010D000DDFF786845F2EC31C0F20001FFF7D6FF82
:1010E00007F10807BD4680BD80B584B000AF7860C9
:1010F0000B46FB70F9784CF6CD43CCF6CC43A3FB02
:1011000001234FEAD30213464FEA830313444FEA05
:101110004303C3EB01037B73FA784CF6CD43CCF663
:10112000CC43A3FB02134FEAD303D9B24CF6CD4311
:10113000CCF6CC43A3FB01234FEAD30213464FEA7C
:10114000830313444FEA4303C3EB0103BB73FA78F1
:1011500048F21F53C5F2EB13A3FB02134FEA5313DC
:10116000D9B24CF6CD43CCF6CC43A3FB01234FEAD6
:10117000D30213464FEA830313444FEA4303C3EBFE
:101180000103FB73FB7B03F13003DBB27868194684
:10119000FFF750FFBB7B03F13003DBB278681946E1
:1011A000FFF748FF7B7B03F13003DBB27868194619
:1011B000FFF740FF07F11007BD4680BD80B584B042
:1011C00000AF78600B467B8079884CF6CD43CCF637
:1011D000CC43A3FB01234FEAD30213464FEA830318
:1011E00013444FEA4303C3EB01039BB2FB727A88BB
:1011F0004CF6CD43CCF6CC43A3FB02134FEAD3030A
:1012000099B24CF6CD43CCF6CC43A3FB01234FEA75
:10121000D30213464FEA830313444FEA4303C3EB5D
:1012200001039BB23B737A8848F21F53C5F2EB135C
:10123000A3FB02134FEA531399B24CF6CD43CCF6FD
:10124000CC43A3FB01234FEAD30213464FEA8303A7
:1012500013444FEA4303C3EB01039BB27B737A88C9
:1012600044F6D353C1F26203A3FB02134FEA931374
:1012700099B24CF6CD43CCF6CC43A3FB01234FEA05
:10128000D30213464FEA830313444FEA4303C3EBED
:1012900001039BB2BB737A8841F25973CDF2B71345
:1012A000A3FB02134FEA533399B24CF6CD43CCF66D
:1012B000CC43A3FB01234FEAD30213464FEA830337
:1012C00013444FEA4303C3EB01039BB2FB73FB7B65
:1012D00003F13003DBB278681946FFF7ABFEBB7B46
:1012E00003F13003DBB278681946FFF7A3FE7B7B7E
:1012F00003F13003DBB278681946FFF79BFE3B7BB6
:1013000003F13003DBB278681946FFF793FEFB7AEE
:1013100003F13003DBB278681946FFF78BFE07F163
:101320001007BD4680BD00BF80B590B000AFF86229
:10133000B962BA6A4CF6CD43CCF6CC43A3FB021398
:101340004FEAD3033B603B684FEA830339680B44A1
:101350004FEA4303C3EB02033B603A68134687F846
:101360003630BA6A4CF6CD43CCF6CC43A3FB02131D
:101370004FEAD3024CF6CD43CCF6CC43A3FB021389
:101380004FEAD3037B607B684FEA830379680B44A1
:101390004FEA4303C3EB02037B607A68134687F886
:1013A0003730BA6A48F21F53C5F2EB13A3FB02139E
:1013B0004FEA53124CF6CD43CCF6CC43A3FB0213B9
:1013C0004FEAD303BB60BB684FEA8303B9680B44A1
:1013D0004FEA4303C3EB0203BB60BA68134687F8C6
:1013E0003830BA6A44F6D353C1F26203A3FB021346
:1013F0004FEA93124CF6CD43CCF6CC43A3FB021339
:101400004FEAD303FB60FB684FEA8303F9680B44A0
:101410004FEA4303C3EB0203FB60FA68134687F805
:101420003930BA6A41F25973CDF2B713A3FB0213F4
:101430004FEA53324CF6CD43CCF6CC43A3FB021318
:101440004FEAD3033B613B694FEA830339690B449D
:101450004FEA4303C3EB02033B613A69134687F843
:101460003A30BB6A4FEA531245F6C523C0F67C23D7
:10147000A3FB02134FEAD3124CF6CD43CCF6CC4378
:10148000A3FB02134FEAD3037B617B694FEA83031B
:1014900079690B444FEA4303C3EB02037B617A692A
:1014A000134687F83B30BA6A4DF68363C4F21B33A8
:1014B000A3FB02134FEA93424CF6CD43CCF6CC4348
:1014C000A3FB02134FEAD303BB61BB694FEA83035B
:1014D000B9690B444FEA4303C3EB0203BB61BA692A
:1014E000134687F83C30BA6A4CF66B23C6F65F3376
:1014F000A3FB02134FEA93524CF6CD43CCF6CC43F8
:10150000A3FB02134FEAD303FB61FB694FEA83039A
:10151000F9690B444FEA4303C3EB0203FB61FA6929
:10152000134687F83D30BA6A43F68933C5F2E6536D
:10153000A3FB02134FEA53624CF6CD43CCF6CC43E7
:10154000A3FB02134FEAD3033B623B6A4FEA8303D8
:10155000396A0B444FEA4303C3EB02033B623A6A26
:10156000134687F83E30BA6A43F68933C5F2E6532C
:10157000A3FB02134FEA53624CF6CD43CCF6CC43A7
:10158000A3FB02134FEAD3037B627B6A4FEA830318
:10159000796A0B444FEA4303C3EB02037B627A6A26
:1015A000134687F83F3097F83F3003F13003DBB242
:1015B000F86A1946FFF73EFD97F83E3003F1300315
:1015C000DBB2F86A1946FFF735FD97F83D3003F1B5
:1015D0003003DBB2F86A1946FFF72CFD97F83C3070
:1015E00003F13003DBB2F86A1946FFF723FD97F8E1
:1015F0003B3003F13003DBB2F86A1946FFF71AFDFE
:1016000097F83A3003F13003DBB2F86A1946FFF776
:1016100011FD97F8393003F13003DBB2F86A19464F
:10162000FFF708FD97F8383003F13003DBB2F86AB2
:101630001946FFF7FFFC97F8373003F13003DBB2B0
:10164000F86A1946FFF7F6FC97F8363003F13003D5
:10165000DBB2F86A1946FFF7EDFC07F14007BD461B
:1016600080BD00BF80B586B000AFF8600B46FB724E
:10167000F86845F2F031C0F20001FFF707FD4FF0C6
:101680000103FB75FA7AFB7D4FEA830342FA03F309
:10169000DBB203F00F03BB75BB7D092B05D9BB7D06
:1016A00003F13703DBB27B6004E0BB7D03F1300361
:1016B000DBB27B60F8687968FFF7BCFCFB7D002B30
:1016C0000CBF00230123DAB2FB7D03F1FF33FB756E
:1016D000002AD7D107F11807BD4680BD80B586B076
:1016E00000AFF8600B467B81F86845F2F031C0F23C
:1016F0000001FFF7CBFC4FF00303FB757A89FB7DFC
:101700004FEA830342FA03F3DBB203F00F03BB7526
:10171000BB7D092B05D9BB7D03F13703DBB27B60B1
:1017200004E0BB7D03F13003DBB27B60F8687968CD
:10173000FFF780FCFB7D002B0CBF00230123DAB2F6
:10174000FB7D03F1FF33FB75002AD7D107F11807A2
:10175000BD4680BD80B586B000AFF860B960F8685E
:1017600045F2F031C0F20001FFF790FC4FF00703A3
:10177000FB75FB7D4FEA8302BB6823FA02F3DBB201
:1017800003F00F03BB75BB7D092B05D9BB7D03F1AE
:101790003703DBB27B6004E0BB7D03F13003DBB2D7
:1017A0007B60F8687968FFF745FCFB7D002B0CBF78
:1017B00000230123DAB2FB7D03F1FF33FB75002A1E
:1017C000D7D107F11807BD4680BD00BF80B584B0F2
:1017D00000AF4FF001037B714FF00003FB714FF03E
:1017E0000003BB714FF002033B714FF00003FB702D
:1017F00007F10303184602F075FC4FF003033B7139
:1018000007F10303184602F06DFC07F108031846C0
:1018100002F08CFF4FF4E133BB6007F108034CF298
:101820000000C4F20000194602F0B8FD4CF20000BE
:10183000C4F200004FF0010103F084FC40F2A0224A
:10184000C1F2000241F28D03C0F20003136040F2C6
:10185000A822C1F2000241F2C103C0F200031360EA
:1018600040F2AC22C1F2000241F23503C0F20003A3
:10187000136040F2B022C1F2000241F26563C0F28F
:101880000003136040F2B422C1F2000241F2DD63B2
:10189000C0F20003136040F29822C1F2000241F24C
:1018A0005573C0F20003136040F29022C1F20002AF
:1018B00041F2E903C0F20003136040F29C22C1F23E
:1018C000000241F2BD13C0F20003136040F2942203
:1018D000C1F2000241F22933C0F20003136040F26A
:1018E000A422C1F2000241F25D03C0F200031360C2
:1018F00007F11007BD4680BD80B584B000AF7860A9
:1019000039607A6844F20003C4F203039A4207D0B4
:1019100045F2F430C0F200004FF03C01FFF708F848
:101920003B68002B06D03A6840F64053C0F20303F0
:101930009A4207D945F2F430C0F200004FF03D0161
:10194000FEF7F6FF4FF480504FF0010100F066FB08
:101950007A684FF0000313604FF40013FB604FF000
:10196000180000F023FB0346BB603A6813464FEAB9
:1019700083131A44BB68B3FBF2F303F1FF33BB607C
:10198000BB684FEA0322FB6843EA0203FB607A6804
:10199000FB68136007F11007BD4680BD80B582B0BB
:1019A00000AF78607A6844F20003C4F203039A42FD
:1019B00007D045F2F430C0F200004FF05C01FEF7B2
:1019C000B7FF7B681B6823F400127B681A604FF432
:1019D00080504FF0000100F021FB07F10807BD46E1
:1019E00080BD00BF80B485B000AF78607B684FEAEF
:1019F000830244F21003C4F2030313441B68FB6028
:101A0000FB684FEA13134FEA03534FEA1353184688
:101A100007F11407BD4680BC704700BF80B582B097
:101A200000AF78600B46FB707A6844F20003C4F2A2
:101A300003039A4207D045F2F430C0F200004FF0A1
:101A40008501FEF775FFFB78002B1CD0FB78012B7E
:101A500019D0FB78022B16D0FB78032B13D0FB7820
:101A6000042B10D0FB78052B0DD0FB78062B0AD069
:101A7000FB78072B07D045F2F430C0F200004FF09E
:101A80008601FEF755FF7B681B6823F0E0627B68E8
:101A90001A607B681A68FB784FEA036342EA030224
:101AA0007B681A6007F10807BD4680BD80B582B02B
:101AB00000AF78600B46FB707A6844F20003C4F212
:101AC00003039A4207D045F2F430C0F200004FF011
:101AD0009701FEF72DFF7B681B6823F480327B683B
:101AE0001A60FB78002B05D07B681B6843F48032BA
:101AF0007B681A6007F10807BD4680BD80B582B0DB
:101B000000AF78600B46FB707A6844F20003C4F2C1
:101B100003039A4207D045F2F430C0F200004FF0C0
:101B2000A901FEF705FF7B681B6823F400127B68A0
:101B30001A60FB78002B05D07B681B6843F4001209
:101B40007B681A6007F10807BD4680BD80B582B08A
:101B500000AF78600B46FB707A6844F20003C4F271
:101B600003039A4207D045F2F430C0F200004FF070
:101B7000BB01FEF7DDFEFB78002B0AD0FB78012BC2
:101B800007D045F2F430C0F200004FF0BC01FEF780
:101B9000CFFE7B681B6823F000627B681A60FB78CD
:101BA000002B05D07B681B6843F000627B681A60DD
:101BB00007F10807BD4680BD80B582B000AF7860F0
:101BC0000B46FB701346BB707A6844F20003C4F204
:101BD00003039A4207D045F2F430C0F200004FF000
:101BE000D401FEF7A5FEFB78002B1FD0FB78012B5C
:101BF0001CD0FB78022B19D0FB78032B16D0FB7876
:101C0000042B13D0FB78052B10D0FB78062B0DD0BE
:101C1000FB78072B0AD0FB78082B07D045F2F4306D
:101C2000C0F200004FF0D501FEF782FE7B68D96854
:101C3000FA784FF0010303FA02F36FEA030301EAB3
:101C400003027B68DA60BB78002B0AD07B68D96816
:101C5000FA784FF0010303FA02F341EA03027B68CA
:101C6000DA6007F10807BD4680BD00BF80B582B0CD
:101C700000AF78600B46FB701346BB707A6844F285
:101C80000003C4F203039A4207D045F2F430C0F2D5
:101C900000004FF0E701FEF74BFEBB78012B0BD1A4
:101CA0007B681968FA784FF0010303FA02F341EAFE
:101CB00003027B681A600CE07B681968FA784FF0C1
:101CC000010303FA02F36FEA030301EA03027B68EC
:101CD0001A6007F10807BD4680BD00BF80B586B019
:101CE00000AFF8600B46FB72FA6844F20003C4F2DE
:101CF00003039A4207D045F2F430C0F200004FF0DF
:101D0000FB01FEF715FEFB6803F110031A46FB7A90
:101D10004FEA830313441B687B617B694FEA13130B
:101D20009BB27B607A684FEA02534FEA13537B60A1
:101D30007B68184607F11807BD4680BD80B586B0A0
:101D400000AFF8600B467A60FB72FA6844F2000359
:101D5000C4F203039A4207D045F2F430C0F2000007
:101D600040F20F11FEF7E4FD7B68002B0AD07B6880
:101D7000012B07D045F2F430C0F2000040F21111FF
:101D8000FEF7D6FDFB6803F110031A46FB7A4FEA13
:101D9000830313441B687B617B68002B04D07B6941
:101DA00003F000437B6103E07B6903F080437B61C8
:101DB0007B69002B03D04FF001033B6002E04FF042
:101DC00000033B603B68184607F11807BD4680BD1D
:101DD00080B582B000AF78607A6844F20003C4F244
:101DE00003039A4207D045F2F430C0F200004FF4EA
:101DF0009471FEF79DFD7B685B68184607F1080744
:101E0000BD4680BD80B586B000AFF860B960FA68A5
:101E100044F20003C4F203039A4207D045F2F430BF
:101E2000C0F2000040F23911FEF782FDBB68002BC2
:101E30000AD0BB68012B07D045F2F430C0F2000095
:101E40004FF49D71FEF774FDFB685B687B61BB68B6
:101E5000002B04D07B6903F000437B6103E07B69C6
:101E600003F080437B617B69002B03D04FF00103BB
:101E70007B6002E04FF000037B607B68184607F14F
:101E80001807BD4680BD00BF80B487B000AFF860C2
:101E9000B960FB681F2B04D9FB68A3F120037B60AA
:101EA00001E0FB687B607B687B61FB681F2B27D8A8
:101EB0004CF20001C4F20F014CF20003C4F20F0314
:101EC000D3F8A8017A694FF0030303FA02F36FEA2B
:101ED000030300EA0303C1F8A8314CF20001C4F285
:101EE0000F014CF20003C4F20F03D3F8A8017A6982
:101EF000BB6803FA02F340EA0303C1F8A83126E005
:101F00004CF20001C4F20F014CF20003C4F20F03C3
:101F1000D3F8AC017A694FF0030303FA02F36FEAD6
:101F2000030300EA0303C1F8AC314CF20001C4F230
:101F30000F014CF20003C4F20F03D3F8AC017A692D
:101F4000BB6803FA02F340EA0303C1F8AC3107F1BE
:101F50001C07BD4680BC704780B485B000AF786078
:101F60007B681F2B09D87B68BB604CF20003C4F26E
:101F70000F03D3F8A831FB600AE07B68A3F12003CC
:101F8000BB604CF20003C4F20F03D3F8AC31FB602A
:101F9000BA68FB6823FA02F303F00303FB60FB68F3
:101FA000184607F11407BD4680BC704780B584B061
:101FB00000AF786040F2F413C1F200031B68BB600D
:101FC0007868FFF7C9FF0346FB60FB68032B1AD84C
:101FD00001A252F823F000BFE91F0000F11F00002A
:101FE000F91F0000012000004FF00403FB600AE02D
:101FF0004FF00103FB6006E04FF00203FB6002E0DC
:102000004FF00803FB60BA68FB68B2FBF3F3BB60F8
:10201000BB68184607F11007BD4680BD80B483B089
:1020200000AF78600B46FB70FB78012B15D14CF2AA
:102030000002C4F20F024CF20003C4F20F03D3F803
:10204000C40079684FF2DE73CEF6EF7301EA030342
:1020500040EA0303C2F8C43019E0FB78002B16D124
:102060004CF20002C4F20F024CF20003C4F20F0360
:10207000D3F8C4107B686FEA030301EA03014FF24F
:10208000DE73CEF6EF7301EA0303C2F8C43007F142
:102090000C07BD4680BC704780B500AF4CF2000312
:1020A000C4F20F034FF00002C3F8C02000F002F8A2
:1020B000BD4680BD80B400AF30BFBD4680BC704718
:1020C00080B500AF4EF60053CEF200034FF004028D
:1020D0001A614CF20003C4F20F034FF00802C3F878
:1020E000C020FFF7E7FFBD4680BD00BF80B500AF51
:1020F0004EF60053CEF200034FF004021A614CF288
:102100000003C4F20F034FF00902C3F8C020FFF729
:10211000D1FFBD4680BD00BF80B500AF4EF6005375
:10212000CEF200034FF004021A614CF20003C4F235
:102130000F034FF00302C3F8C020FFF7BBFFBD46FB
:1021400080BD00BF80B500AF4FF000504FF00101DF
:10215000FFF764FF44F20013C5F200034FF00002E2
:102160001A6144F22013C5F200034FF000021A6115
:1021700044F24013C5F200034FF000021A6144F22A
:102180006013C5F200034FF000021A6144F280139D
:10219000C5F200034FF000021A6144F2A013C5F229
:1021A00000034FF000021A6144F2C013C5F20003AD
:1021B0004FF000021A6144F2E013C5F200034FF041
:1021C00000021A6144F20003C5F200034FF0FF025F
:1021D0009A6044F20003C5F200034FF0FF021A6157
:1021E000BD4680BD80B489B000AFF86044F2000302
:1021F000C5F20003D969FB681B681A464FF001035A
:1022000003FA02F301EA030303F0FF03002B03D0F8
:102210004FF000023A6002E2FB681A6840F2F813DD
:10222000C1F2000353F822307B6144F20002C5F290
:102230000002FB681B6819464FF0010303FA01F323
:1022400003F0FF03936044F20002C5F20002FB6852
:102250001B6819464FF0010303FA01F303F0FF0373
:1022600013617A694FF00003D3607A694FF000037D
:102270001361FB681A6A7B699A60FB685B69032BD0
:1022800000F21E8101A252F823F000BF9D2200003F
:10229000E7220000812300001B240000FB68DA68AD
:1022A0007B691A60FB681A697B695A60FB685B6826
:1022B0004FEA03524FEA1252FB689B6803F0070390
:1022C0004FEA834342EA0302FB689B6803F007037B
:1022D0004FEA435342EA030343F00C4343F4103301
:1022E0007A69D360F0E0FB68DA687B691A60FB68A2
:1022F000DA6945F22C43C0F2000353F822207B69CF
:102300005A60FB685B684FEA03524FEA1252FB685F
:10231000D96945F28C43C0F200035B5C03F007030C
:102320004FEA033342EA0301FB68DA6945F28C4362
:10233000C0F200039B5C03F007034FEAC33341EA9A
:102340000301FB68DA6945F2A443C0F200039B5C19
:1023500003F007034FEA834341EA0301FB68DA69AC
:1023600045F2A443C0F200039B5C03F007034FEA6D
:10237000435341EA030343F004427B69DA60A3E07C
:10238000FB689A6945F22C43C0F2000353F82220FF
:102390007B691A60FB681A697B695A60FB685B6835
:1023A0004FEA03524FEA1252FB68996945F28C4397
:1023B000C0F200035B5C03F007034FEA033342EA19
:1023C0000301FB689A6945F28C43C0F200039B5CF1
:1023D00003F007034FEAC33341EA0301FB689A693C
:1023E00045F2A443C0F200039B5C03F007034FEAED
:1023F000834341EA0301FB689A6945F2A443C0F2B2
:1024000000039B5C03F007034FEA435341EA0303D5
:1024100043F008427B69DA6056E0FB689A6945F24E
:102420002C43C0F2000353F822207B691A60FB683A
:10243000DA6945F22C43C0F2000353F822207B698D
:102440005A60FB685B684FEA03524FEA1252FB681E
:10245000996945F28C43C0F200035B5C03F007030B
:102460004FEA033342EA0301FB68DA6945F28C4321
:10247000C0F200039B5C03F007034FEAC33341EA59
:102480000301FB689A6945F2A443C0F200039B5C18
:1024900003F007034FEA834341EA0301FB68DA696B
:1024A00045F2A443C0F200039B5C03F007034FEA2C
:1024B000435341EA030343F000427B69DA6003E0DF
:1024C0004FF000033B60AAE0FB689B690F2B15D916
:1024D0004CF2C411C4F200014CF2C413C4F2000364
:1024E0001868FB689B69A3F110031A464FF00103BB
:1024F00003FA02F340EA03030B6016E04CF2C41146
:10250000C4F200014CF2C413C4F200031868FB6863
:102510009B69A3F108031A464FF0010303FA02F383
:102520006FEA030300EA03030B60FB68DB690F2B10
:1025300015D94CF2C411C4F200014CF2C413C4F218
:1025400000031868FB68DB69A3F110031A464FF01B
:10255000010303FA02F340EA03030B6016E04CF2B6
:10256000C411C4F200014CF2C413C4F20003186891
:10257000FB68DB69A3F108031A464FF0010303FA75
:1025800002F36FEA030300EA03030B6044F2000363
:10259000C5F200034FF001021A6344F20003C5F2D2
:1025A00000031B6B03F00103002BF6D0FB689B6953
:1025B000BB61BB690F2B04D9BB69A3F108037B6026
:1025C00001E0BA697A607B68BB61FB68DB69FB612B
:1025D000FB690F2B04D9FB69A3F10803BB6001E081
:1025E000FA69BA60BB68FB61FB685B6903F00703CB
:1025F0004FEAC322BB6903F01F034FEA430342EAD9
:102600000302FB6903F01F034FEA831342EA03034B
:1026100043F440427B691A614FF001023A603B6823
:10262000184607F12407BD4680BC704780B485B0CA
:1026300000AF03460A46FB711346BB71FA7940F2BC
:10264000F813C1F2000353F82230FB60BB79012B71
:1026500006D1FB681B6943F00102FB681A6105E0C3
:10266000FB681B6923F00102FB681A6107F114077C
:10267000BD4680BC704700BF80B582B000AF034646
:102680000A46FB711346BB71FB79002B16D0FB7910
:10269000012B13D0FB79022B10D0FB79032B0DD02B
:1026A000FB79042B0AD0FB79052B07D045F2BC40FF
:1026B000C0F200004FF4C271FEF73AF9BB79072B64
:1026C00007D945F2BC40C0F2000040F28511FEF788
:1026D0002FF9FB79042B00F2858001A252F823F038
:1026E000F52600002527000055270000852700005B
:1026F000B527000044F20003C5F200031968BA7957
:102700004FF0010303FA02F301EA030303F0FF03AE
:10271000002B03D04FF001033B607AE04FF0000242
:102720003A6076E044F20003C5F200035968BA79D2
:102730004FF0010303FA02F301EA030303F0FF037E
:10274000002B03D04FF001033B6062E04FF000022A
:102750003A605EE044F20003C5F20003D968BA793A
:102760004FF0010303FA02F301EA030303F0FF034E
:10277000002B03D04FF001033B604AE04FF0000212
:102780003A6046E044F20003C5F200039969BA7961
:102790004FF0010303FA02F301EA030303F0FF031E
:1027A000002B03D04FF001033B6032E04FF00002FA
:1027B0003A602EE044F20003C5F200035969BA7989
:1027C0004FF0010303FA02F301EA030303F0FF03EE
:1027D000002B03D04FF001033B601AE04FF00002E2
:1027E0003A6016E044F20003C5F20003D969BA79F1
:1027F0004FF0010303FA02F301EA030303F0FF03BE
:10280000002B03D04FF001033B6002E04FF00002C9
:102810003A603B68184607F10807BD4680BD00BF17
:1028200080B582B000AF03460A46FB711346BB7108
:10283000FB79002B0AD0FB79012B07D045F2BC4075
:10284000C0F200004FF4D771FEF772F8BB79072B86
:1028500007D945F2BC40C0F2000040F2AF11FEF7CC
:1028600067F8FB79002B0CD144F20002C5F200029C
:10287000B9794FF0010303FA01F303F0FF0393600A
:102880000BE044F20002C5F20002B9794FF00103F7
:1028900003FA01F303F0FF03136107F10807BD46D4
:1028A00080BD00BF80B483B000AF78607A684CF21E
:1028B0000003C4F201039A4203D14FF000033B60CE
:1028C00018E07A684CF20003C4F205039A4203D17F
:1028D0004FF001033B600DE07A6840F20003C4F260
:1028E0000A039A4203D14FF002033B6002E04FF02B
:1028F000FF333B603B68184607F10C07BD4680BCC0
:10290000704700BF80B483B000AF78607A684FF042
:10291000080393617A684FF0200313607B681B689B
:1029200003F00803002BF9D07A684FF0200393617D
:102930007B685B6803F0F803184607F10C07BD4697
:1029400080BC704780B483B000AF78607B681B6840
:1029500003F02003002B03D07A684FF0200393612B
:102960007A684FF0100313607A684FF008039361A0
:1029700007F10C07BD4680BC704700BF80B483B030
:1029800000AF78600B46FB707B681B6803F0200388
:10299000002B03D07A684FF020039361FA787B68AC
:1029A0009A607A684FF0080393617B681B6803F0B4
:1029B0000803002BF9D07B685B6803F0F803184626
:1029C00007F10C07BD4680BC704700BF80B485B0DE
:1029D00000AFF860B9601346FB71FB79012B04D19D
:1029E000FA684FF00403136003E0FA684FF0040341
:1029F0009361FA684FF008039361FB681B6803F06A
:102A00000803002BF9D0FB689B68DBB2BA6813702F
:102A1000FB685B6803F0F803184607F11407BD462E
:102A200080BC704780B584B000AF786039607A6848
:102A30004CF20003C4F201039A4215D07A684CF2BA
:102A40000003C4F205039A420ED07A6840F20003F4
:102A5000C4F20A039A4207D045F2F840C0F20000DF
:102A60004FF0D801FDF764FF7A684CF20003C4F21E
:102A700001039A4209D14FF00E00FFF797FA03467F
:102A80003A68B3FBF2F3FB6020E07A684CF2000393
:102A9000C4F205039A4209D14FF02600FFF786FAE7
:102AA00003463A68B3FBF2F3FB600FE07A6840F24A
:102AB0000003C4F20A039A4208D14FF02600FFF740
:102AC00075FA03463A68B3FBF2F3FB60FB684FEA22
:102AD00053027B681A617B681A69FB68C2EB0302C8
:102AE0007B685A6107F11007BD4680BD80B582B092
:102AF00000AF786039607A684CF20003C4F20103D9
:102B00009A4215D07A684CF20003C4F205039A4247
:102B10000ED07A6840F20003C4F20A039A4207D04A
:102B200045F2F840C0F200004FF48071FDF700FF5D
:102B30007A684CF20003C4F201039A420CD14FF0C0
:102B400080004FF00101FFF769FA4FF00E004FF0DF
:102B50000201FFF799F926E07A684CF20003C4F20B
:102B600005039A420CD14FF400204FF00101FFF70A
:102B700055FA4FF026004FF00201FFF785F912E0F9
:102B80007A6840F20003C4F20A039A4213D14FF06C
:102B900080604FF00101FFF741FA4FF034004FF031
:102BA0000201FFF771F978683968FFF73BFF7A682F
:102BB0004FF06403936107F10807BD4680BD00BF75
:102BC00080B582B000AF78607A684CF20003C4F23E
:102BD00001039A4215D07A684CF20003C4F205034F
:102BE0009A420ED07A6840F20003C4F20A039A4275
:102BF00007D045F2F840C0F200004FF49871FDF79D
:102C000097FE7A684FF0400393617A684CF20003B4
:102C1000C4F201039A4206D14FF080004FF0000148
:102C2000FFF7FCF91AE07A684CF20003C4F20503DE
:102C30009A4206D14FF400204FF00001FFF7EEF961
:102C40000CE07A6840F20003C4F20A039A4205D10C
:102C50004FF080604FF00001FFF7E0F907F108073F
:102C6000BD4680BD80B582B000AF78600B46FB707A
:102C7000FB78002B0AD0FB78012B07D045F2F840F7
:102C8000C0F2000040F25111FDF752FE7A684CF29A
:102C90000003C4F201039A4215D07A684CF2000393
:102CA000C4F205039A420ED07A6840F20003C4F2DF
:102CB0000A039A4207D045F2F840C0F200004FF4F0
:102CC000A971FDF735FEFB78012B04D17A684FF02E
:102CD0004003136003E07A684FF04003936107F10B
:102CE0000807BD4680BD00BF80B582B000AF7860E8
:102CF0000B46FB70FB78002B23D07A684CF2000364
:102D0000C4F201039A4204D14FF00A0000F040F8E7
:102D10003AE07A684CF20003C4F205039A4204D107
:102D20004FF00B0000F034F82EE07A6840F2000318
:102D3000C4F20A039A4227D14FF00C0000F028F8A1
:102D400022E07A684CF20003C4F201039A4204D1F3
:102D50004FF00A0000F038F816E07A684CF20003F1
:102D6000C4F205039A4204D14FF00B0000F02CF896
:102D70000AE07A6840F20003C4F20A039A4203D1DF
:102D80004FF00C0000F020F807F10807BD4680BDA9
:102D900080B483B000AF0346FB714EF20011CEF257
:102DA000000197F907304FEA5310FB7903F01F0237
:102DB0004FF0010303FA02F341F8203007F10C074A
:102DC000BD4680BC704700BF80B483B000AF0346EF
:102DD000FB714EF20011CEF2000197F907304FEA75
:102DE0005310FB7903F01F024FF0010303FA02F3C3
:102DF0001A4600F1200341F8232007F10C07BD46D5
:102E000080BC704780B586B000AF78607868FFF707
:102E100049FD0346FB60FA6840F23423C1F2000327
:102E200053F832307B617B685B68DBB223F00703C9
:102E3000FB74FA7C7B695A62FB7CF82B04D17A68BC
:102E40004FF008039361CBE1FB6840F23422C1F2FA
:102E500000024FEAC30313445B68002B40F0DA80A2
:102E6000FB7CA3F10803302B00F2908101A252F801
:102E700023F000BF392F00008D3100008D3100009C
:102E80008D3100008D3100008D3100008D3100004A
:102E90008D310000392F00008D3100008D31000090
:102EA0008D3100008D3100008D3100008D3100002A
:102EB0008D310000672F00008D3100008D31000042
:102EC0008D3100008D3100008D3100008D3100000A
:102ED0008D310000F92F00008D3100008D31000090
:102EE0008D3100008D3100008D3100008D310000EA
:102EF0008D310000672F00008D3100008D31000002
:102F00008D3100008D3100008D3100008D310000C9
:102F10008D310000F92F00008D3100008D3100004F
:102F20008D3100008D3100008D3100008D310000A9
:102F30008D310000073000007A684FF02003936164
:102F40007B695B68002B2CD07B699B68002B28D0A9
:102F50007B691B684FEA43027B689A607A684FF08E
:102F6000080393613CE17B69DA687B699B689A425C
:102F700017D27B695B68002B13D07B695A687B6929
:102F8000DB6813441B781A467B689A607B69DB68B0
:102F900003F101027B69DA607A684FF008039361FC
:102FA0001EE1FA6840F23423C1F200034FEAC20284
:102FB0001A444FF0010353607B695B69002B14D006
:102FC0007B691B69002B10D07B699B68002B57D055
:102FD0007B695B68002B53D07A684FF02003136045
:102FE0007A684FF00C039361FAE07B695B6A43F403
:102FF00080627B695A62E2E07B695B6A43F400723B
:103000007B695A62C2E07B695B6A43F480727B69C8
:103010005A62BBE0FB6840F23422C1F200024FEA80
:10302000C30313445B68012B40F0DA80FB7C3B60F8
:103030003A68402A38D03B68402B0ADC3A68102AAC
:1030400012D03B68382B00F09B803A68082A0BD0DE
:103050009CE03B68502B3DD03A68582A69D03B68C9
:10306000482B00F0868091E07A684FF0200393614E
:103070007B691B69002B10D07B695B69002B0CD02E
:103080007B691B684FEA430343F001027B689A6047
:103090007A684FF008039361A2E07B695B6A43F4AE
:1030A00080627B695A628AE07B699A697B695B69A5
:1030B00003F1FF339A4204D27A684FF0040313609D
:1030C00003E07A684FF0040393617A684FF00803D5
:1030D000936185E07B691B69002B14D07B699A6939
:1030E0007B695B699A420ED27B691A697B699B692D
:1030F0001A447B689B68DBB213707B699B6903F1A0
:1031000001027B699A617B699A697B695B6903F15A
:10311000FF339A4204D27A684FF00403136003E04D
:103120007A684FF0040393617A684FF00803936163
:1031300056E07B691B69002B14D07B699A697B6917
:103140005B699A420ED27B691A697B699B691A4452
:103150007B689B68DBB213707B699B6903F101029A
:103160007B699A617B695B6A43F480627B695A621E
:1031700025E07B695B6A43F400727B695A6205E073
:103180007B695B6A43F480727B695A627B691A6A65
:103190007B69DB699A4212D27A694FF00003D360EF
:1031A0007A684FF0200313607A684FF00C03936144
:1031B0007B691B6A03F101027B691A6210E078687F
:1031C0004FF00001FFF790FD7868FFF7BBFBFB684D
:1031D00040F24C22C1F200024FF0010142F82310EC
:1031E00007F11807BD4680BD80B586B000AF786096
:1031F0007868FFF757FB0346BB60BA6840F2342398
:10320000C1F2000353F832303B617B685B68DBB28C
:1032100023F00703FB73FA7B3B699A61FB7BF82B76
:1032200004D17A684FF008039361D1E0FB7B3B60E7
:103230003B68982B5FD03B68982B13DC3B68802B56
:1032400037D03B68802B06DC3B68602B28D03B687E
:10325000702B25D0AAE03B68882B4CD03B68902B84
:1032600027D0A3E03B68B82B70D03B68B82B06DCB6
:103270003B68A02B44D03B68A82B67D096E03B6806
:10328000C02B00F085803B68F82B40F08F807A6877
:103290004FF0040313607A684FF00803936197E0DE
:1032A0007A684FF0040313607A684FF00803936163
:1032B0008EE03B695A693B691B699A4212D23B69AD
:1032C000DB68002B0ED03B69DA683B695B691A4406
:1032D0007B689B68DBB213703B695B6903F1010299
:1032E0003B695A617A684FF0040313607A684FF0C3
:1032F000080393616CE07A684FF00803936167E01C
:1033000078684FF00001FFF7EFFC7B684FF0080290
:103310009A614FF480337B617B681B6803F008037C
:10332000002B05D078684FF00101FFF7DDFC4FE07E
:103330007B6903F1FF337B617B69002BECD13B6937
:103340009B6943F480623B699A612FE03B699A680C
:103350003B695B689A4212D23B691B68002B0ED016
:103360003B691A683B699B6813441B781A467B6863
:103370009A603B699B6803F101023B699A607A6835
:103380004FF0040313607A684FF0080393611FE065
:103390007A684FF0040313607A684FF00803936172
:1033A0003B699B6943F480623B699A6178684FF09E
:1033B0000001FFF799FC7A684FF02C039361B9681C
:1033C00040F25823C1F200034FF0010243F82120DC
:1033D00007F11807BD4680BD80B588B000AFF86022
:1033E000B9601346FB71BB685B687B61BB681B6996
:1033F000BB61BA684FF00003D360BA684FF00003B6
:103400009361BA684FF000035362FB79002B40F0E0
:103410004481BA684FF000031362BB685B687B614C
:10342000BB681B69BB61BA684FF00003D360BA6820
:103430004FF0000393614FF00003FB61F868FFF762
:1034400061FA0346FB61FB69082B12D0FB69102B64
:103450000FD0BB681B6A03F10102BB681A62BB682C
:103460001A6ABB68DB699A42D7D9BA68FB695362AA
:103470000CE1BB689B68002B51D0BB685B68002BDC
:103480004DD0BB681B68DBB24FEA4303DBB2F86880
:103490001946FFF773FA0346FB61FB69182B38D016
:1034A000BB681B6A03F10102BB681A62BB681A6A37
:1034B000BB68DB699A42B0D9FB6943F40072BB6810
:1034C0005A62E3E07B691B78F8681946FFF756FA01
:1034D0000346FB61FB69282B11D0BB681B6A03F113
:1034E0000102BB681A62BB681A6ABB68DB699A4250
:1034F00093D9FB6943F40072BB685A62C6E07B69EA
:1035000003F101037B61BB68DB6803F10102BB6867
:10351000DA60BB68DA68BB689B689A42D2D3BB6842
:103520009B68002B27D0BB685B68002B23D0BB684F
:103530005B69002B1FD0BB681B69002B1BD0F86890
:10354000FFF7E0F90346FB61FB69082B13D0FB6929
:10355000102B10D0BB681B6A03F10102BB681A6212
:10356000BB681A6ABB68DB699A427FF656AFBA68D5
:10357000FB6953628AE0BB685B69002B7FD0BB6844
:103580001B69002B7BD0BB681B68DBB24FEA43038F
:10359000DBB243F00103DBB2F8681946FFF7EEF93E
:1035A0000346FB61FB69402B63D0BB681B6A03F1D8
:1035B0000102BB681A62BB681A6ABB68DB699A427F
:1035C0007FF62BAFFB6943F40072BB685A625DE083
:1035D000BB689A69BB685B6903F1FF339A421DD2ED
:1035E00007F11303F86819464FF00102FFF7EEF9EF
:1035F0000346FB61FB69502B2ED0BB681B6A03F1AD
:103600000102BB681A62BB681A6ABB68DB699A422E
:103610007FF603AFBA68FB69536237E007F1130323
:10362000F86819464FF00002FFF7D0F90346FB6136
:10363000FB69582B10D0BB681B6A03F10102BB6801
:103640001A62BB681A6ABB68DB699A427FF6E5AE0C
:10365000BA68FB69536219E0FB7CBA691370BB69F5
:1036600003F10103BB61BB689B6903F10102BB6805
:103670009A61BB689A69BB685B699A42A8D3F8688B
:10368000FFF760F94FF001033B6038E0F868FFF79F
:1036900059F94FF000033B6031E0FB79012B2BD14E
:1036A000F868FFF7FFF80346DBB2FB74FB7C1946B2
:1036B000BA6840F23423C1F2000343F83120FB7CA6
:1036C0001A4640F23423C1F200034FEAC2021A4400
:1036D0004FF000035360FA684FF008039361FA68F3
:1036E0004FF020031360F8684FF00101FFF7FCFA78
:1036F0004FF001033B6002E04FF000033B603B688A
:10370000184607F12007BD4680BD00BF80B58CB0CC
:1037100000AF786139611346FB733B691B68BB617D
:103720003B69DB68FB613A694FF0000393603A69DB
:103730004FF0000353613A694FF000039361FB7B44
:10374000002B40F0EF807A694FF0040313607A6930
:103750004FF0280393614FF00003BB624FF000036A
:103760007B627B691B6803F00803002B00F0BB80C1
:103770004FF00003BB627B695B6803F0F8033B62B8
:103780003B6A7B607B68982B5DD07B68982B13D855
:103790007B68802B35D07B68802B06D87B68602BBC
:1037A00026D07B68702B23D08EE07B68882B4AD094
:1037B0007B68902B25D087E07B68B82B53D07B6843
:1037C000B82B06D87B68A02B42D07B68A82B4AD0A8
:1037D0007AE07B68C02B68D07B68F82B74D17A695B
:1037E0004FF0040313607A694FF008039361B8E760
:1037F0007A694FF0040313607A694FF0080393610C
:10380000AFE73B695A693B691B699A4212D23B692F
:10381000DB68002B0ED07B699B68DBB2FA69137002
:10382000FB6903F10103FB613B695B6903F1010281
:103830003B695A617A694FF0040313607A694FF06B
:10384000080393618DE77A694FF00803936188E775
:103850007A694FF0080393614FF00103BB624FF0A8
:1038600000037B627DE73B699A683B695B689A422B
:1038700012D23B691B68002B0ED0BB691B781A461D
:103880007B699A60BB6903F10103BB613B699B687B
:1038900003F101023B699A607A694FF004031360F7
:1038A0007A694FF0080393615BE77A694FF004038C
:1038B00013607A694FF0080393614FF00103BB6214
:1038C0004FF000037B624CE77A694FF00803936185
:1038D0007A694FF0040393613A693B6A93614FF050
:1038E0000003BB604DE0BB6A002B3FF43AAF7B6A3C
:1038F000B3F5803F94BF00230123DAB27B6A03F162
:1039000001037B62002A3FF42CAF7A694FF0040375
:1039100093613B6A43F480623B699A614FF0010313
:10392000BB602EE0FB7B012B28D17869FEF7BAFF44
:103930000346FB62F96A3A6940F23423C1F200039C
:1039400043F83120FA6A40F23423C1F200034FEA0F
:10395000C2021A444FF0010353607A694FF0040326
:1039600013607A694FF02803936178694FF0010181
:10397000FFF7BAF94FF00103BB6002E04FF000031C
:10398000BB60BB68184607F13007BD4680BD00BF6D
:1039900080B584B000AF786039607A684CF200037B
:1039A000C4F201039A4215D07A684CF20003C4F2C3
:1039B00005039A420ED07A6840F20003C4F20A036B
:1039C0009A4207D045F2F840C0F2000040F2994117
:1039D000FCF7AEFF3B681B78032B07D945F2F84094
:1039E000C0F2000040F29A41FCF7A2FF3B689B78CE
:1039F000002B0BD03B689B78012B07D045F2F84099
:103A0000C0F2000040F29B41FCF792FF3B685B78FC
:103A10004FEA43031A463B689B78012B14BF0023EF
:103A2000012342EA030303F0FF03FB603B681B78BA
:103A3000032B32D801A252F823F000BF4D3A000008
:103A4000613A0000753A0000893A00007A68FB6824
:103A5000D3603B68DB7803F0FE027B681A631CE0EE
:103A60007A68FB6813623B68DB7803F0FE027B68D0
:103A70005A6312E07A68FB6853623B68DB7803F0B4
:103A8000FE027B689A6308E07A68FB6893623B6891
:103A9000DB7803F0FE027B68DA6307F11007BD46AE
:103AA00080BD00BF80B584B000AFF860B960134638
:103AB000FB71FA684CF20003C4F201039A4215D07C
:103AC000FA684CF20003C4F205039A420ED0FA6879
:103AD00040F20003C4F20A039A4207D045F2F840CC
:103AE000C0F2000040F2CD41FCF722FFFB79002B31
:103AF0000AD0FB79012B07D045F2F840C0F2000054
:103B000040F2CF41FCF714FFFB79012B07D1FB6892
:103B1000DA69BB6842EA0302FB68DA610AE0FB6823
:103B2000DA69BB686FEA030302EA030303F00702E2
:103B3000FB68DA6107F11007BD4680BD80B582B031
:103B400000AF78600B46FB707A684CF20003C4F259
:103B500001039A4215D07A684CF20003C4F20503BF
:103B60009A420ED07A6840F20003C4F20A039A42E5
:103B700007D045F2F840C0F2000040F2E941FCF7FE
:103B8000D7FEFB78002B0AD0FB78012B07D045F23B
:103B9000F840C0F2000040F2EA41FCF7C9FEFB78B1
:103BA000012B0ED17B68DB6943F001027B68DA618F
:103BB0007A684FF0040313607A684FF0280393612A
:103BC00009E07B68DB6903F006027B68DA617A68EA
:103BD0004FF02C03936140F26423C1F200034FF0D5
:103BE00000021A6007F10807BD4680BD80B582B0AB
:103BF00000AF78607A684CF20003C4F201039A4285
:103C000015D07A684CF20003C4F205039A420ED034
:103C10007A6840F20003C4F20A039A4207D045F2E0
:103C2000F840C0F2000040F20C51FCF781FE7B68C6
:103C3000DB6ADBB2184607F10807BD4680BD00BF4E
:103C400080B487B000AFF860B9607A604FF00003CD
:103C5000FB75FA684FF00803936140F26423C1F2E8
:103C600000031A68BB681A44FB68DB6ADBB2137096
:103C700040F26423C1F200031B6803F1010240F229
:103C80006423C1F200031A6040F26423C1F200030E
:103C90001A687B689A4202D34FF00103FB75FB7DE3
:103CA000184607F11C07BD4680BC704780B584B03C
:103CB00000AF78607868FEF7F5FD0346FB60FA68B0
:103CC00040F24C23C1F2000353F82230BB60F96884
:103CD00040F24C23C1F200034FF0000243F82120D0
:103CE000BB68184607F11007BD4680BD80B584B09B
:103CF00000AF78607868FEF7D5FD0346FB60FA6890
:103D000040F25823C1F2000353F82230BB60F96837
:103D100040F25823C1F200034FF0000243F8212083
:103D2000BB68184607F11007BD4680BD80B483B05C
:103D300000AF4EF20013CEF200034FF0FF32C3F893
:103D400080204EF20013CEF200034FF00102C3F8C0
:103D500084204EF20013CEF200034FF0FF32C3F87E
:103D600080214EF20013CEF200034FF00102C3F89F
:103D700084214FF00003FB710DE04EF20013CEF2F0
:103D80000003FA791A444FF0000382F80033FB79FC
:103D900003F10103FB71FB791F2BEED907F10C072F
:103DA000BD4680BC704700BF80B483B000AF4EF604
:103DB0000053CEF200034FF020625A604EF60053DB
:103DC000CEF200034FF000029A604EF60052CEF29F
:103DD000000240F20003C0F2FA53D3604EF60053E3
:103DE000CEF200034FF000021A614EF60053CEF2FD
:103DF00000034FF000025A614FF00003FB710CE02A
:103E00004EF60053CEF20003FA791A444FF0000345
:103E10001376FB7903F10103FB71FB791F2BEFD9BB
:103E20004EF60053CEF200034FF000025A624EF6F7
:103E30000053CEF200034FF0FF329A624EF6005369
:103E4000CEF200034FF0FF32DA624EF60053CEF2AC
:103E500000034FF0FF321A6307F10C07BD4680BC28
:103E6000704700BF80B483B000AF78604EF6005357
:103E7000CEF200037A689A6007F10C07BD4680BC59
:103E8000704700BF80B487B000AF0346FB710B469C
:103E9000BB7113467B71BB79FB60FB794FEA43032F
:103EA0003B614CF20003C4F202037B61FB680F2B01
:103EB00007D9FB68A3F11003FB603B6903F1010321
:103EC0003B613B694FEA83027B6903EB02003B697C
:103ED0004FEA83027B6913441968FB684FEA430386
:103EE0001A464FF0030303FA02F36FEA030301EAF1
:103EF000030303603B694FEA83027B6903EB020023
:103F00003B694FEA83027B69134419687A79FB683D
:103F10004FEA430302FA03F341EA0303036007F1A4
:103F20001C07BD4680BC704780B487B000AF034615
:103F3000FB710B46BB7113467B71BB79FB60FB7950
:103F40004FEA43033B614CF24003C4F202037B613E
:103F5000FB680F2B07D9FB68A3F11003FB603B69DB
:103F600003F101033B613B694FEA83027B6903EB89
:103F700002003B694FEA83027B6913441968FB68BE
:103F80004FEA43031A464FF0030303FA02F36FEAC2
:103F9000030301EA030303603B694FEA83027B6981
:103FA00003EB02003B694FEA83027B691344196803
:103FB0007A79FB684FEA430302FA03F341EA030309
:103FC000036007F11C07BD4680BC704780B485B014
:103FD00000AF0346FB710B46BB7113467B714CF27D
:103FE0006803C4F20203FB607B79012B14D1FB79D7
:103FF0004FEA8302FB6803EB0200FB794FEA83027E
:10400000FB6813441968BA794FF0010303FA02F30D
:1040100041EA0303036015E0FB794FEA8302FB6882
:1040200003EB0200FB794FEA8302FB681344196833
:10403000BA794FF0010303FA02F36FEA030301EACE
:104040000303036007F11407BD4680BC704700BF3F
:1040500080B483B000AF0346FB71FB79012B0CD118
:104060004CF20002C4F202024CF20003C4F202035A
:104070009B6A43F0080393620EE0FB79002B0BD19F
:104080004CF20002C4F202024CF20003C4F202033A
:104090009B6A23F00803936207F10C07BD4680BCBE
:1040A000704700BF80B485B000AF03460A46FB717D
:1040B0001346BB71FB79012B02D14FF00503FB6066
:1040C000BB79002B02D14FF00A03FB604CF20003D6
:1040D000C4F20203FA68DA6707F11407BD4680BC30
:1040E000704700BF80B582B000AF78607B681A78F7
:1040F0007B6859787B689B7810461A46FFF7C2FEAA
:104100007B681A787B6859787B68DB7810461A469A
:10411000FFF70AFF7B681A787B6859787B681B7900
:1041200010461A46FFF752FF07F10807BD4680BD4B
:1041300080B58EB000AF786039604FF00003FB723D
:104140004FF000033B614FF000037B614FF0000331
:104150003B624FF001037B624FF00003BB624FF004
:104160000003FB624FF000033B6348F2A063C0F220
:1041700001037B637A684CF20003C4F200039A42A5
:1041800006D14FF00600FDF711FF0346FB6028E063
:104190007A6840F20003C4F201039A4206D14FF05C
:1041A0000800FDF703FF0346FB601AE07A6848F257
:1041B0000003C4F209039A4206D14FF03000FDF724
:1041C000F5FE0346FB600CE07A684CF20003C4F293
:1041D00009039A4205D14FF03200FDF7E7FE03468E
:1041E000FB60FB684FEA1313FB604FF00103BB61F8
:1041F0005DE04FF00003FB614FE0BA69FB6803FB31
:1042000002F1BA69FB691344B1FBF3F37B617A698C
:104210003B68B2FBF3F33B6279693B68B1FBF3F2B5
:104220003B6803FB02F3C3EB01023B684FEA530315
:104230009A4203D93B6A03F101033B623B6A022BBA
:1042400027D93A6A4FF6FF739A4222D87A693B6AB5
:10425000B2FBF3F33B613A693B689A4205D83B688D
:104260003A69C2EB03033B6304E03B693A68C2EB83
:1042700003033B633A6B7B6B9A420AD2BB697B6256
:10428000FB69BB623B6AFB623B6B7B633B6B002B56
:1042900006D0FB6903F10103FB61FB690F2BACD96D
:1042A0003B6B002B06D0BB6903F10103BB61BB690B
:1042B0000F2B9ED93A6813464FEA43031A4448F23B
:1042C0001F53C5F2EB13A3FB02134FEA53127B6B90
:1042D0009A425DD97A6840F20003C4F201039A421F
:1042E00029D17A687B681B7BDBB26FEA43636FEA94
:1042F0005363DBB213737A68FB6A4FEA1323DBB2B2
:1043000013717A68FB6ADBB213707A687B681B7B77
:10431000DBB203F07F03137379687B6A4FEA031300
:1043200003F0FF02BB6A03F00F0342EA030303F04A
:10433000FF038B6229E07B681B7BDBB26FEA436380
:104340006FEA5363DBB27A681373FB6A4FEA132395
:10435000DBB27A681371FB6ADBB27A6813707B6830
:104360001B7BDBB203F07F037A6813737B6ADBB2DB
:104370004FEA0313DAB2BB6ADBB203F00F0342EA7F
:104380000303DBB27A6882F828304FF00103FB7236
:10439000FB7A184607F13807BD4680BD80B586B068
:1043A00000AFF860B960FA684CF20003C4F2000391
:1043B0009A421CD0FA6840F20003C4F201039A4208
:1043C00015D0FA6848F20003C4F209039A420ED0ED
:1043D000FA684CF20003C4F209039A4207D045F28E
:1043E0003050C0F200004FF0BF01FCF7A1FABB68EB
:1043F0005B79002B13D0BB685B79012B0FD0BB68B6
:104400005B79022B0BD0BB685B79032B07D045F29D
:104410003050C0F200004FF0C001FCF789FABB68D1
:104420009B79002B0BD0BB689B79012B07D045F201
:104430003050C0F200004FF0C101FCF779FABB68C0
:104440001B79002B17D0BB681B79012B13D0BB68DD
:104450001B79022B0FD0BB681B79032B0BD0BB68D9
:104460001B79042B07D045F23050C0F200004FF00A
:10447000C201FCF75DFAFA684CF20003C4F20003D3
:104480009A4205D14FF008004FF00101FDF7C6FD3B
:10449000FA6840F20003C4F201039A424DD1FA686F
:1044A0004FF007031372FA684FF00003137203E032
:1044B000FB681B78DBB27B61FB681B7DDBB203F022
:1044C0000103DBB2002BF3D1FB686FF07F0283F8AE
:1044D0003020FB681B7DDBB203F02003002BF8D0FB
:1044E000FA684FF0000382F83030FA684FF00003AA
:1044F0005360FA684FF000031373FA684FF000033B
:104500001362FA684FF000031374FA684FF0000367
:1045100082F84C30FA684FF0000382F85430FA68A1
:104520004FF0000382F85030FB681B7EDBB27B61EA
:10453000FB681B7DDBB27B6135E0FA684FF0070357
:104540001372FA684FF00003137203E0FB681B78E4
:10455000DBB27B61FB681B7DDBB203F00103DBB2E6
:10456000002BF3D1FB686FF07F0283F83020FB68EB
:104570001B7DDBB203F02003002BF8D0FA684FF06C
:10458000000382F83030FA684FF000035360FA6895
:104590004FF000031373FA684FF000031362FB68D7
:1045A0001B7DDBB27B61FA684CF20003C4F20903A5
:1045B0009A4204D1FB684FF0000283F82420BB68C4
:1045C0001B68F8681946FFF7B3FDFA6840F200036C
:1045D000C4F201039A4206D1FB681B7BDBB203F0F5
:1045E000C0037B6105E0FB681B7BDBB203F0C0030B
:1045F0007B61BB685B797B607A68012A06D07B6847
:10460000022B08D07A68002A0ED009E07B6943F0BB
:1046100001037B6108E07B6943F002037B6103E0F7
:104620007B6943F003037B61BB681B79002B23D0BC
:104630007B6943F008037B61BB681B7903F1FF339F
:10464000032B19D801A252F823F000BF79460000CD
:104650005D46000067460000714600007B6943F03C
:1046600010037B6108E07B6943F020037B6103E07A
:104670007B6943F030037B61BB689B79012B03D1DD
:104680007B6943F004037B61FA6840F20003C4F2E3
:1046900001039A4204D1FA687B69DBB2137303E029
:1046A0007B69DBB2FA68137307F11807BD4680BD5A
:1046B00080B582B000AF78607A684CF20003C4F233
:1046C00000039A421CD07A6840F20003C4F201034E
:1046D0009A4215D07A6848F20003C4F209039A425C
:1046E0000ED07A684CF20003C4F209039A4207D054
:1046F00045F23050C0F2000040F28B11FCF718F97F
:1047000078684FF0000100F01DFD7A684CF200035C
:10471000C4F200039A4205D14FF008004FF00001A7
:10472000FDF77CFC07F10807BD4680BD80B483B06F
:1047300000AF78607A684FF4165313607A684FF0D0
:10474000030353717A684FF0000313717A684FF0D6
:104750000003937107F10C07BD4680BC704700BF92
:1047600080B582B000AF78600B46FB707A684CF27F
:104770000003C4F200039A421CD07A6840F200039E
:10478000C4F201039A4215D07A6848F20003C4F2D9
:1047900009039A420ED07A684CF20003C4F209036E
:1047A0009A4207D045F23050C0F2000040F2CF11DB
:1047B000FCF7BEF87A6840F20003C4F201039A42A3
:1047C00003D17A68FB78137002E07A68FB78137083
:1047D00007F10807BD4680BD80B582B000AF7860A4
:1047E0007A684CF20003C4F200039A421CD07A6843
:1047F00040F20003C4F201039A4215D07A6848F2ED
:104800000003C4F209039A420ED07A684CF2000306
:10481000C4F209039A4207D045F23050C0F20000BA
:104820004FF4F471FCF784F87A6840F20003C4F2A4
:1048300001039A4204D17B681B78DBB23B6003E042
:104840007B681B78DBB23B603B68184607F10807C2
:10485000BD4680BD80B58AB000AFF860B9607A60AF
:10486000FB70BB687B627B687B61FB78012B3CD172
:104870004FF00003BB6134E04FF0FF33FB6106E013
:10488000FB69002B0AD0FB6903F1FF33FB61FB6876
:104890001B7DDBB203F02003002BF1D0FB69002B62
:1048A00051D04FF010033B6215E07B6A1A787B6AA7
:1048B00003F101037B62F8681146FFF751FF3B6A81
:1048C00003F1FF333B627B6903F1FF337B61BB691B
:1048D00003F10103BB613B6A002B02D07B69002B13
:1048E000E3D17B69002BC7D12DE04FF00003BB6102
:1048F00026E0FB681B7DDBB203F02003002B22D0F7
:104900004FF010033B6215E07B6A1A787B6A03F173
:1049100001037B62F8681146FFF722FF7B6903F110
:10492000FF337B613B6A03F1FF333B62BB6903F1F9
:104930000103BB613B6A002B02D07B69002BE3D1F2
:104940007B69002BD5D1BB69184607F12807BD4606
:1049500080BD00BF80B588B000AFF860B9607A60F4
:10496000FB70BB68FB617B683B61FB78012B2ED140
:104970004FF000037B6126E04FF0FF33BB6106E0A0
:10498000BB69002B0AD0BB6903F1FF33BB61FB6835
:104990001B7DDBB203F00103002BF1D0BB69002BC0
:1049A00035D0F868FFF718FF0346FA691370FB6902
:1049B00003F10103FB613B6903F1FF333B617B6959
:1049C00003F101037B613B69002BD5D11FE04FF060
:1049D00000037B6118E0FB681B7DDBB203F0010381
:1049E000002B14D0F868FFF7F7FE0346FA6913703E
:1049F000FB6903F10103FB617B6903F101037B6147
:104A00003B6903F1FF333B613B69002BE3D17B69D9
:104A1000184607F12007BD4680BD00BF80B582B0B3
:104A200000AF78607A684CF20003C4F200039A4247
:104A30001CD07A6840F20003C4F201039A4215D0F8
:104A40007A6848F20003C4F209039A420ED07A68E9
:104A50004CF20003C4F209039A4207D045F23050E9
:104A6000C0F2000040F27A21FBF762FF7A6840F260
:104A70000003C4F201039A4208D17A687B681B7B69
:104A8000DBB243F04003DBB2137307E07B681B7BB0
:104A9000DBB243F04003DBB27A68137307F1080717
:104AA000BD4680BD80B584B000AF78600B46FB701A
:104AB0001346BB707A684CF20003C4F200039A42BA
:104AC0001CD07A6840F20003C4F201039A4215D068
:104AD0007A6848F20003C4F209039A420ED07A6859
:104AE0004CF20003C4F209039A4207D045F2305059
:104AF000C0F2000040F2A121FBF71AFFBB78002BA7
:104B00000AD0BB78012B07D045F23050C0F200002C
:104B100040F2A221FBF70CFFFB78062B2BD801A259
:104B200052F823F0414B0000494B0000514B00006C
:104B3000594B0000614B0000694B0000714B0000B5
:104B40004FF00103FB6016E04FF00203FB6012E040
:104B50004FF00403FB600EE04FF00803FB600AE037
:104B60004FF08003FB6006E04FF48073FB6002E0CF
:104B70004FF40073FB607A6840F20003C4F2010353
:104B80009A421DD1FB78002B31D0FB78012B2ED01F
:104B9000FB78022B2BD0FB78052B28D0FB78062B3B
:104BA00025D0FB78032B22D0FB78042B1FD045F2B5
:104BB0003050C0F2000040F2BE21FBF7B9FE16E013
:104BC000FB78002B13D0FB78012B10D0FB78022B45
:104BD0000DD0FB78052B0AD0FB78062B07D045F2C9
:104BE0003050C0F2000040F2C221FBF7A1FEBB78BA
:104BF000012B16D17A6840F20003C4F201039A42F5
:104C000007D179687B685A68FB6842EA03034B6006
:104C10002DE07B685A68FB6842EA03027B685A60B1
:104C200025E07A6840F20003C4F201039A420FD1F2
:104C300079687B685A68FB686FEA030302EA03023B
:104C400040F28F33C0F2000302EA03034B600EE030
:104C50007B685A68FB686FEA030302EA030240F2CA
:104C60000733C0F2000302EA03037A68536007F1D6
:104C70001007BD4680BD00BF80B582B000AF786030
:104C80007A684CF20003C4F200039A421CD07A689E
:104C900040F20003C4F201039A4215D07A6848F248
:104CA0000003C4F209039A420ED07A684CF2000362
:104CB000C4F209039A4207D045F23050C0F2000016
:104CC0004FF43C71FBF734FE7A6840F20003C4F203
:104CD00001039A4207D140F20003C4F201031B7D95
:104CE000DBB23B6003E07B681B7DDBB23B603B6873
:104CF000184607F10807BD4680BD00BF80B582B0E9
:104D000000AF78607A684CF20003C4F200039A4264
:104D10001CD07A6840F20003C4F201039A4215D015
:104D20007A6848F20003C4F209039A420ED07A6806
:104D30004CF20003C4F209039A4207D045F2305006
:104D4000C0F2000040F20731FBF7F2FD7B689A6881
:104D500040F2CF33C0F2000302EA0303184607F122
:104D60000807BD4680BD00BF80B483B000AF786047
:104D70007B681B7DDBB203F04003002B03D04FF0B8
:104D800000033B6002E04FF001033B603B681846C4
:104D900007F10C07BD4680BC704700BF80B586B0E8
:104DA00000AFF860B9604FF00003FB75FA684CF291
:104DB0000003C4F200039A421CD0FA6840F20003D8
:104DC000C4F201039A4215D0FA6848F20003C4F213
:104DD00009039A420ED0FA684CF20003C4F20903A8
:104DE0009A4207D045F23050C0F2000040F22D3117
:104DF000FBF79EFDBB68DB78002B13D0BB68DB782C
:104E0000012B0FD0BB68DB78022B0BD0BB68DB78A3
:104E1000032B07D045F23050C0F2000040F22E3193
:104E2000FBF786FDBB689B78002B0BD0BB689B789B
:104E3000012B07D045F23050C0F2000040F22F3174
:104E4000FBF776FDBB681B78002B0BD0BB681B788B
:104E5000012B07D045F23050C0F200004FF44C71E6
:104E6000FBF766FDBB685B78002B0BD0BB685B78FB
:104E7000012B07D045F23050C0F2000040F2313132
:104E8000FBF756FDFB7D43F00103FB75BB68DB7848
:104E90007B607B68012B06D07B68022B08D07B6887
:104EA000002B12D00BE0FB7D43F04003FB750CE0C0
:104EB000FB7D6FEA43636FEA5363FB7505E0FB7D9F
:104EC0006FEA83636FEA9363FB75BB685B78012BC2
:104ED00003D1FB7D43F00403FB75BB681B78012BFA
:104EE00003D1FB7D43F00203FB75BB689B78012B6C
:104EF00003D1FB7D43F00803FB75FA6840F2000321
:104F0000C4F201039A4205D1FB68FA7D02F0CF0298
:104F10001A7204E0FB7D03F0CF03FA68137207F105
:104F20001807BD4680BD00BF80B483B000AF786075
:104F30007A684FF0000393707A684FF00003D370E3
:104F40007A684FF0010313707A684FF001035370D1
:104F500007F10C07BD4680BC704700BF80B586B026
:104F600000AFF860B9601346FB71FA684CF20003B9
:104F7000C4F200039A421CD0FA6840F20003C4F263
:104F800001039A4215D0FA6848F20003C4F20903FB
:104F90009A420ED0FA684CF20003C4F209039A4216
:104FA00007D045F23050C0F200004FF46271FBF7B9
:104FB000BFFCFB79002B0AD0FB79012B07D045F20F
:104FC0003050C0F2000040F28931FBF7B1FC4FF0E5
:104FD00000037B61FB79012B0FD1BB681B78012B90
:104FE00003D17B6943F002037B61BB685B78012BD3
:104FF00003D17B6943F004037B61FA6840F200034C
:10500000C4F201039A422AD1FB79012B22D1FA681A
:10501000FB681B7BDBB26FEA43636FEA5363DBB26F
:105020001373FA684FF000031370FA684FF000032F
:105030001371FA68FB681B7BDBB203F07F03137309
:10504000FA684FF010039362FA687B6943F001033A
:1050500013622FE0FA684FF0000313622AE0FB7935
:10506000012B23D1FB681B7BDBB26FEA43636FEA42
:105070005363DBB2FA681373FA684FF000031370DE
:10508000FA684FF000031371FB681B7BDBB203F07F
:105090007F03FA681373FA684FF0100382F8283020
:1050A0007B6943F00102FB681A6203E0FA684FF083
:1050B0000003136207F11807BD4680BD80B582B0BA
:1050C00000AF78600B467B807A684CF20003C4F234
:1050D00000039A421CD07A6840F20003C4F2010334
:1050E0009A4215D07A6848F20003C4F209039A4242
:1050F0000ED07A684CF20003C4F209039A4207D03A
:1051000045F23050C0F2000040F2C931FBF710FC0C
:105110007A6840F20003C4F201039A4207D17B6827
:105120001A6A7B8842EA03027B681A6206E07B689F
:105130001A6A7B8842EA03027B681A6207F1080751
:10514000BD4680BD80B582B000AF78600B46FB7075
:105150007A684CF20003C4F200039A421CD07A68C9
:1051600040F20003C4F201039A4215D07A6848F273
:105170000003C4F209039A420ED07A684CF200038D
:10518000C4F209039A4207D045F23050C0F2000041
:105190004FF47871FBF7CCFBFB78002B0AD0FB783F
:1051A000012B07D045F23050C0F2000040F2E1314F
:1051B000FBF7BEFBFB78012B20D17A6840F200039D
:1051C000C4F201039A420CD17A687B6893F83030BC
:1051D000DBB26FEA43636FEA5363DBB282F83030CD
:1051E00024E07B6893F83030DBB26FEA43636FEA08
:1051F0005363DBB27A6882F8303017E07A6840F2A5
:105200000003C4F201039A4208D17B6893F830305E
:105210007A684FF0000382F8303007E07B6893F83B
:1052200030307A684FF0000382F8303007F1080719
:10523000BD4680BD1E4D1F4C26E054F8100C54F89E
:105240000C3C54F808EC98420DD01946002205E0B9
:1052500083180832D3E9006741E902670B46083139
:105260007245F5D101E000EB0E031A4654F8041C18
:10527000002304E008330026002742E902670832D1
:105280008B42F7D1013D1434002DD6D100F022F825
:10529000094808B9284600E00068084901B10968D2
:1052A0000022FBF73DFB064B0BB100E000BFFEE721
:1052B00001000000A45500000000000000000000F4
:1052C0000000000001498D46014908470080001098
:1052D0003552000070B545F27C5345F27C55C0F262
:1052E0000003C0F200055B1B9E1006D0002455F899
:1052F000243001349847A642F9D800F039F945F234
:105300007C5545F28053C0F20005C0F200035B1BE0
:105310009E1006D0002455F8243001349847A64248
:10532000F9D870BD4D6173746572207472616E73CB
:105330006D6974206461746120746F20736C617690
:10534000652E2E2E00000000566572696679206475
:10535000617461206572726F722100005665726916
:105360006679206461746120737563636573736625
:10537000756C6C79210000004D6173746572207248
:1053800065616420646174612066726F6D20736C66
:105390006176652E2E2E00004D6173746572207447
:1053A00072616E736D6974206461746120746F2022
:1053B000736C6176652066697273742C20746865FD
:1053C0006E207265706561742073746172742061FF
:1053D0006E64207265616420646174612066726F1E
:1053E0006D20736C6176652E2E2E00000A0D000074
:1053F00030780000453A2F4E58502F6E78706D630C
:10540000752F4C504331373030434D5349532F445F
:105410007269766572732F736F757263652F6C7026
:1054200063313778785F6164632E630008800840D9
:10543000088008400800034008000340044003407F
:1054400008800A400C800A4000C0084000C00040AC
:1054500000C0004000000140000001400080094001
:105460000080094000C0094000C0094018400040C9
:105470001C400040188000401C800040180009407B
:105480001C000940184009401C400940010101016D
:105490000104040000000000000000000000000003
:1054A00000000000000000000202020000000000F6
:1054B000000000000202020202020202453A2F4EE0
:1054C00058502F6E78706D63752F4C5043313730C4
:1054D00030434D5349532F447269766572732F736D
:1054E0006F757263652F6C7063313778785F6770A2
:1054F000646D612E63000000453A2F4E58502F6EA8
:1055000078706D63752F4C504331373030434D53B5
:1055100049532F447269766572732F736F75726386
:10552000652F6C7063313778785F6932632E630062
:10553000453A2F4E58502F6E78706D63752F4C5032
:105540004331373030434D5349532F4472697665A8
:1055500072732F736F757263652F6C706331377858
:10556000785F756172742E63000000000000000017
:10557000F8B500BFF8BC08BC9E46704709010000A2
:10558000F8B500BFF8BC08BC9E467047DD000000BF
:1055900000000000B05500000000001018020000DC
:0455A000A000000067
:0855A40028ABFF7F01000000AD
:1055B00000000000000000002A2A2A2A2A2A2A2A9B
:1055C0002A2A2A2A2A2A2A2A2A2A2A2A2A2A2A2A3B
:1055D0002A2A2A2A2A2A2A2A2A2A2A2A2A2A2A2A2B
:1055E0002A2A2A2A2A2A2A2A2A2A2A2A2A2A2A2A1B
:1055F0002A2A2A2A2A2A2A2A2A2A2A2A2A2A2A2A0B
:105600002A2A2A2A2A2A2A2A0A0D48656C6C6F201F
:105610004E58502053656D69636F6E647563746F87
:105620007273200A0D4932432064656D6F200A0DA4
:1056300009202D204D43553A204C5043313778787E
:10564000200A0D09202D20436F72653A2041524DEA
:1056500020436F727465782D4D33200A0D09202D7B
:105660002054686973206578616D706C652075736E
:1056700065732074776F20493243207065726970BA
:10568000686572616C2C206F6E6520736574206193
:1056900073206D617374657220616E64200A0D0958
:1056A00020746865206F746865722073657420616A
:1056B0007320736C617665200A0D09204669727348
:1056C000742C20746865206D617374657220736535
:1056D0006E64203136206279746573206F662064B1
:1056E00061746120746F20736C617665200A0D0906
:1056F000205468656E2C20746865206D6173746534
:10570000722072656365697665203136206279742E
:105710006573206F6620646174612066726F6D200E
:10572000736C617665200A0D0920426F7468206FE2
:1057300066207468656D207573656420696E2069E4
:105740006E74657272757074206D6F6465200A0DD9
:105750002A2A2A2A2A2A2A2A2A2A2A2A2A2A2A2AA9
:105760002A2A2A2A2A2A2A2A2A2A2A2A2A2A2A2A99
:105770002A2A2A2A2A2A2A2A2A2A2A2A2A2A2A2A89
:105780002A2A2A2A2A2A2A2A2A2A2A2A2A2A2A2A79
:105790002A2A2A2A2A2A2A2A2A2A2A2A2A2A2A2A69
:1057A0000A0D000000E1F5050041005020410050C5
:1057B000404100506041005080410050A0410050E5
:0857C000C0410050E04100501F
:00000001FF
